:100000000C942E000C944B000C944B000C943B026F
:100010000C944B000C944B000C944B000C9460021D
:100020000C944B000C944B000C944B000C944B0024
:100030000C944B000C944B000C944B000C944B0014
:100040000C944B000C944B000C944B000C944B0004
:100050000C944B000C944B000C944B0011241FBECD
:10006000CFEFD4E0DEBFCDBF11E0A0E0B1E0E0E132
:10007000F6E002C005900D92A831B107D9F723E050
:10008000A8E1B1E001C01D92AF33B207E1F70E94D1
:100090003C010C9406030C94000087EB8093E50070
:1000A00087E08093E6008FE08093E70080EC809308
:1000B000E400089566307105A0F5E82FF0E0EE0F3A
:1000C000FF1FE056FF4F4081518160FF03C0A4E055
:1000D0003FE002C0A0E030EFFB01FF230CF43196BB
:1000E000F595E795E451FF4FBF016C5E7F4F80812E
:1000F000232F2823CA018F7099270A2E02C0880F48
:10010000991F0A94E2F7822B808355954795559560
:100110004795559547955595479535966E177F07A1
:1001200031F70895CF92DF92EF92FF92CF93DF9352
:100130006B017C0183E0C816D104E104F1047CF179
:10014000D701C60181709927AA27B078BB2354F440
:100150000197A109B1098E6F9F6FAF6FBF6F0196B5
:10016000A11DB11D892B8A2B8B2BE1F0C2E0D0E0C1
:1001700008C0C701B6010E948402672B682B692B57
:10018000A1F021969E010D2E000C440B550B2C1551
:100190003D054E055F056CF381E090E008C081E00D
:1001A00090E005C080E090E002C080E090E0DF9148
:1001B000CF91FF90EF90DF90CF9008958F929F9214
:1001C000AF92BF92CF92DF92EF92FF92CF93DF93E5
:1001D0004B015C01EA01F89450931D0140931C010E
:1001E00024E630E040E050E00E9484020F2EFAE066
:1001F000CF2ED12CE12CF12CF02DA70196010E94DD
:100200008402BE0180E3820F0E945A00C0911C014B
:10021000D0911D012196D0931D01C0931C01C501F1
:10022000B401A70196010E948402862FBE01805D61
:100230000E945A007894DF91CF91FF90EF90DF9069
:10024000CF90BF90AF909F908F900895EC01C12CFC
:10025000D12C7601C394C701B6010E949200892B6C
:1002600029F0AE01C701B6010E94DE008FEFC81A67
:10027000D80AE80AF80AEFCFE1E6F0E080E88083E8
:1002800010820E944D0060E070E086E291E00E94E2
:10029000840183E090E00E942601DC0115961C9207
:1002A0001E921497DB01ED91FC911197309721F488
:1002B0008D939C930895F901248135812115310591
:1002C000D1F7958384830895CF93DF9300D0CDB782
:1002D000DEB79A8389838091140190911501069667
:1002E0000E94C502892B59F489819A819093150146
:1002F0008093140161E070E006960E94E5020F9081
:100300000F90DF91CF910895CF93DF9300D0CDB7B9
:10031000DEB7F8942091180130911901232BA1F533
:1003200028EF31E03093900120938F0125E632E0F1
:100330003093FD012093FC0122ED32E030936A02FC
:10034000209369021092D7021092D6022F9A20E8C9
:100350002DBB20936C0020EC209380002DE0209397
:10036000810027E831E030938900209388001092C3
:1003700085001092840022E020936F0021E030E09D
:100380003093190120931801209116013091170123
:100390003A832983232BA9F0E981FA81448155818D
:1003A0005093170140931601918380837383628376
:1003B00015821482CF0106960E94C502019749F565
:1003C00001C0FFCF7894A0911401B0911501ED9177
:1003D000FC91119712968D919C9113970995F89421
:1003E00066E171E080911401909115010E944D0128
:1003F00080911A0190911B01009751F0FC0124811A
:10040000358130931B0120931A010E94640101C0C1
:10041000FFCFE981FA81369689819A8187599F4F6A
:10042000918B808B938B828B6AE171E089819A81B9
:100430000E944D0178940F900F90DF91CF91089515
:10044000F8946AE171E080911401909115010E9485
:100450004D0180911A0190911B01009759F0FC0108
:100460002481358130931B0120931A010E9464017D
:1004700078940895FFCF1F920F920FB60F92112418
:100480002F933F934F935F936F937F938F939F939C
:10049000AF93BF93EF93FF931F9B0E942002FF91A6
:1004A000EF91BF91AF919F918F917F916F915F91EC
:1004B0004F913F912F910F900FBE0F901F90189565
:1004C0001F920F920FB60F9211242F933F934F93C9
:1004D0005F936F937F938F939F93AF93BF93EF93AC
:1004E000FF930E942002FF91EF91BF91AF919F91E6
:1004F0008F917F916F915F914F913F912F910F90CD
:100500000FBE0F901F901895052E97FB1EF40094B8
:100510000E949B0257FD07D00E94A30207FC03D054
:100520004EF40C949B0250954095309521953F4F89
:100530004F4F5F4F089590958095709561957F4FCF
:100540008F4F9F4F0895A1E21A2EAA1BBB1BFD01DE
:100550000DC0AA1FBB1FEE1FFF1FA217B307E407A2
:10056000F50720F0A21BB30BE40BF50B661F771FFA
:10057000881F991F1A9469F76095709580959095DA
:100580009B01AC01BD01CF010895DC012D923D928C
:100590004D925D926D927D928D929D92AD92BD92A3
:1005A000CD92DD92ED92FD920D931D93CD93DD934F
:1005B000FF91EF918DB78D938EB78D938FB78D93FC
:1005C000ED93FD93882799270994DC01CB018130B5
:1005D0009105811D2D903D904D905D906D907D9089
:1005E0008D909D90AD90BD90CD90DD90ED90FD9063
:1005F0000D911D91CD91DD91ED91FD910D90F894AE
:10060000FEBF0FBEEDBFED91FD910994F894FFCFB1
:1006100051151001111E111B500B411B411F1101DF
:08062000511F511B1E018B014B
:00000001FF
