S00C00006C6162322E73726563B7
S11300000C942E000C944B000C944B000C940602A0
S11300100C944B000C944B000C944B000C944B0030
S11300200C944B000C944B000C944B000C944B0020
S11300300C944B000C944B000C944B000C944B0010
S11300400C944B000C944B000C944B000C944B0000
S11300500C944B000C944B000C944B0011241FBEC9
S1130060CFEFD4E0DEBFCDBF11E0A0E0B1E0E6EF1A
S1130070F5E002C005900D92A831B107D9F723E04D
S1130080A8E1B1E001C01D92A334B207E1F70E94D8
S11300901A010C94F9020C94000087EB8093E5009C
S11300A087E08093E6008FE08093E70080EC809304
S11300B0E400089566307105A0F5E82FF0E0EE0F36
S11300C0FF1FE056FF4F4081518160FF03C0A4E051
S11300D03FE002C0A0E030EFFB01FF230CF43196B7
S11300E0F595E795E451FF4FBF016C5E7F4F80812A
S11300F0232F2823CA018F7099270A2E02C0880F44
S1130100991F0A94E2F7822B80835595479555955C
S11301104795559547955595479535966E177F079D
S113012031F708956330710581059105E4F0DC0130
S1130130CB0181709927AA27B078BB2354F4019787
S1130140A109B1098E6F9F6FAF6FBF6F0196A11D9B
S1130150B11D31E020E0892B8A2B8B2B09F430E090
S1130160832F922F089508958F929F92AF92BF92FA
S1130170CF92DF92EF92FF92CF93DF934B015C011A
S1130180EA0188E191E00E942B02D0932101C093FF
S11301902001C501B40124E630E040E050E00E94B3
S11301A077020F2EFAE0CF2ED12CE12CF12CF02D7A
S11301B0A70196010E947702BE0180E3820F0E948C
S11301C05A00C0912001D09121012196D0932101A0
S11301D0C0932001C501B401A70196010E947702D2
S11301E0862FBE01805D0E945A0088E191E00E9442
S11301F05202DF91CF91FF90EF90DF90CF90BF90AC
S1130200AF909F908F900895EC01C12CD12C760172
S1130210C394C701B6010E949200892B29F0AE0154
S1130220C701B6010E94B4008FEFC81AD80AE80AC1
S1130230F80AEFCFE1E6F0E080E8808310820E94C4
S11302404D0060E070E084E091E00E94620183E090
S113025090E00E940401DC0115961C921E921497F2
S1130260DB01ED91FC911197309721F48D939C93D0
S11302700895F9012481358121153105D1F795833C
S113028084830895CF93DF9300D0CDB7DEB79A83EC
S11302908983809114019091150106960E94B802F9
S11302A0892B59F489819A819093150180931401C3
S11302B061E070E006960E94D8020F900F90DF91E3
S11302C0CF910895CF93DF9300D0CDB7DEB7F894E4
S11302D020911C0130911D01232B09F52CEF31E0F5
S11302E0309394012093930129E632E03093010284
S11302F02093000226ED32E030936E0220936D02CB
S11303001092DB021092DA022F9A20E82DBB209380
S11303106C0021E030E030931D0120931C012091FA
S11303201601309117013A832983232BA9F0E9811F
S1130330FA814481558150931701409316019183AA
S113034080837383628315821482CF0106960E9490
S1130350B802019749F501C0FFCF7894A091140128
S1130360B0911501ED91FC91119712968D919C918C
S113037013970995F89466E171E0809114019091C6
S113038015010E942B0180911E0190911F0100977D
S113039051F0FC012481358130931F0120931E010B
S11303A00E94420101C0FFCFE981FA81369689811A
S11303B09A8187599F4F918B808B938B828B6EE1AF
S11303C071E089819A810E942B0178940F900F909B
S11303D0DF91CF91089578946EE171E080911401DA
S11303E0909115010E942B0180911E0190911F0193
S11303F0009759F0FC012481358130931F0120932B
S11304001E010E944201F8940895FFCF1F920F929B
S11304100FB60F9211242F933F934F935F936F93D3
S11304207F938F939F93AF93BF93EF93FF931F9B00
S11304300E94EB01FF91EF91BF91AF919F918F913A
S11304407F916F915F914F913F912F910F900FBECC
S11304500F901F901895F894FC0120813181232B73
S113046029F421E030E0318320831AC0BC016E5F9F
S11304707F4F80911401909115010E942B0180916E
S11304801E0190911F01009751F0FC0124813581D8
S113049030931F0120931E010E94420101C0FFCF2F
S11304A078940895CF93DF93F894FC0122813381EB
S11304B0232B19F41182108216C0EC016EE171E055
S11304C080911401909115010E942B018A819B81D6
S11304D0009741F0FC01248135813B832A830E94EB
S11304E0420101C0FFCF7894DF91CF910895052E8A
S11304F097FB1EF400940E948E0257FD07D00E94C1
S1130500960207FC03D04EF40C948E02509540954D
S1130510309521953F4F4F4F5F4F089590958095AB
S1130520709561957F4F8F4F9F4F0895A1E21A2ECA
S1130530AA1BBB1BFD010DC0AA1FBB1FEE1FFF1F83
S1130540A217B307E407F50720F0A21BB30BE40BD3
S1130550F50B661F771F881F991F1A9469F760951A
S11305607095809590959B01AC01BD01CF010895D4
S1130570DC012D923D924D925D926D927D928D9211
S11305809D92AD92BD92CD92DD92ED92FD920D932E
S11305901D93CD93DD93FF91EF918DB78D938EB71E
S11305A08D938FB78D93ED93FD93882799270994A5
S11305B0DC01CB0181309105811D2D903D904D9042
S11305C05D906D907D908D909D90AD90BD90CD90FF
S11305D0DD90ED90FD900D911D91CD91DD91ED910A
S11305E0FD910D90F894FEBF0FBEEDBFED91FD910E
S10905F00994F894FFCF0A
S11305F651151001111E111B500B411B411F1101F6
S10B0606511F511B22018F0159
S9030000FC
